:10D0000038B504460D460FF0D7FE08482168016088
:10D0100061684160A16881600FF0CEFC0EF0F7FFFF
:10D020002846BDE832400AF00FBA00BF044900208C
:10D03000DFF800F0F93A0110DFF800F0C93A01100A
:10D04000DFF8C42B808913880021984208D25268E7
:10D050000C2303FB00200F220078104218BF01218F
:10D060000846704710B5DFF8A02B838952680C245E
:10D07000012904FB032402D1408860800DE00229CD
:10D0800007D141886180001D00F051F828B9207057
:10D0900003E0011D201D00F043F8207840F08000DF
:10D0A0002070BDE8104006F01AB9F8B500F031F96B
:10D0B000A08100202178E9B10025DFF84C6B15E054
:10D0C00000F0D5F811D18F1820783870211D6088B4
:10D0D0007880381D00F024F8A581387840F0800071
:10D0E000387006F0FCF8012035886D1C3188ADB22F
:10D0F0008D42E5D3F2BD38B5DFF80C4B208068B126
:10D100000C2101FB00F5A8B206F098FA606030B17E
:10D11000AAB2BDE83840002106F003BB606031BD13
:10D12000002918BFFFF784BF082206F0FABA0021D1
:10D1300040B10022135C0BB101210822521CD2B273
:10D14000082AF7DB08467047024601208A4206D0CB
:10D1500022B100291CBF1046FFF76EBF00207047A8
:10D160001FB50C46ADF8020000218DF8001000A894
:10D1700000F055F801A92046FFF7D2FF2046FFF73F
:10D18000D6FF04B010BD1FB50C4600218DF800106D
:10D19000014601A8FFF7C4FF00A800F06FF8BDF832
:10D1A0000200208002F049FE14BF0120002004B0DC
:10D1B00010BD38B50546FFF743FF0446012C0BD1DF
:10D1C00000F025F82A78017882F0FF02114041F042
:10D1D0008001017006F083F8204632BD38B505465F
:10D1E0000024287888B12846FFF72AFF0446012C3E
:10D1F0000BD100F00CF8297802780A4205D141F0F1
:10D2000080011143017006F06AF8204632BDDFF854
:10D21000F809A98940680C2202FB01007047F8B5A3
:10D22000044600F07AF84FF6FE71A1810020628872
:10D230008A421BD00025DFF8D06913E000F017F810
:10D240000FD08F1861887A8891420AD1381DFFF774
:10D250006EFF012802D1391D00F060F8A581012080
:10D2600035886D1C3188ADB28D42E7D3F2BD0C21FB
:10D27000726869430F278B5C3B4270472DE9F04190
:10D2800000F047F86080A0814FF00008201DFFF7F4
:10D290004EFF01281BD10026DFF86C7913E00C202B
:10D2A000796870430F23425C1A420BD04518291D40
:10D2B000201DFFF7C1FE28B168886080A6814FF06D
:10D2C00001083E88761C3888B6B28642E7D34046CD
:10D2D000BDE8F08170B500F01CF8608000F01DF82A
:10D2E0002046FFF7ADFE0546012D10D1DFF81809E5
:10D2F000A18940680C2202FB010670886080301D05
:10D30000FFF715FF012802D1311D00F007F828466C
:10D3100070BD04464FF6FE7070470021201DFFE6E9
:10D320002DE9F041044688B04FF6FE75A581002630
:10D330004FF0010800278DF80060211D01A8FFF7BC
:10D34000EFFE00A8FFF79AFF012808D1BDF80C00F6
:10D35000A0816188BDF8020088423DD000AE8DF802
:10D3600010706088ADF8120004A8FFF758FF01287C
:10D3700008BF04AF3EB1B089A08101212046FFF76C
:10D3800071FE4FB30BE0C7B1B889A081381DFFF71C
:10D39000CEFE012807D12046FFF787FE80467D801C
:10D3A0000221384606E0201DFFF7C1FE012813D1F7
:10D3B00003212046FFF756FE0EE06088A84207D101
:10D3C000201DFFF7B4FE012818BF4FF0000803D15D
:10D3D0002046FFF76AFE80462046FFF7FFFE4046E4
:10D3E00002F01CB870B582B000F049F80DE0686832
:10D3F0000C2101FB0406009600F02BF806F08FFDCF
:10D4000010B93078C0433070641CA4B228888442BC
:10D41000EDD373BD30B585B000F031F812E0686827
:10D420000C2101FB040001780A060AD511F07F01E6
:10D43000017002D100F03AF801A800F009F806F0F6
:10D440003FFD641C2888A4B28442E8D305B030BDF7
:10D4500000900C23002221460120704738B500F0CF
:10D460000EF806E000230C222146012006F0E0FC25
:10D47000641C2888A4B28442F4D3002032BD002466
:10D48000DFF88457704730B585B000F00FF8FFF72C
:10D49000F6FF05E001A8FFF7DBFF06F011FD641CB5
:10D4A0002888A4B28442F5D305B030BD0C22FF21F8
:10D4B00001A806F036B980B506F0B8FDDFF8240DF6
:10D4C0000FF23111C1610FF2651101620FF20121FA
:10D4D00041620FF21D21816201BD10B5DFF8044DDC
:10D4E00000216170207004F17400DFF8FC1CFFF76C
:10D4F0009FFDDFF8F80C0078A070DFF8240DA06124
:10D5000010BD30B50C46200485B0DFF8D85C2BD5B3
:10D51000287806F0BFF9050023D095F83110A81C33
:10D5200000F0D6FAD0B92878012812D105F10C0004
:10D5300005F11003417B039181680291C17901914A
:10D54000A91C007B009005F11C00AA8907F0C5F812
:10D5500004E0022804BF284601F0EEFC284606F04D
:10D560002BF984F4004014E0A00704D50120E870F2
:10D5700084F002000DE020070AD500F062FA20B91D
:10D5800028640821287807F04DFB84F0080000E0AB
:10D59000002005B030BD38B504466068007D10300D
:10D5A000C0B206F0F7F8050022D002202870002053
:10D5B000687020886881A07828736068007D287270
:10D5C00005F1100068606068007810F0200118BF55
:10D5D000012169726068027D0169686806F089F856
:10D5E000DFF8000C00782946BDE8344006F0F3B8B7
:10D5F00031BD000038B50C4611461A4606F011FE42
:10D60000050011D0214606F0CAFD68B12146284622
:10D6100006F0D6FD30B96C88284606F0B7FD2046E6
:10D6200006F0AFFE002032BDB42032BD2DE9FE432E
:10D6300081460D46B3264FF00008002700E07F1C0E
:10D64000DFF8280D0078FFB287423ED2384606F058
:10D6500044FF0400F3D0607940445FFA80F8C1458C
:10D66000EDDA18220021284606F05BF86179A9EB73
:10D6700008000818C0B204EB4000C088688103F0BD
:10D68000D9FC01462846FFF7D3FC6078012802D177
:10D690002875608813E0608800A906F0A0FE78B1C4
:10D6A0009DF8080028759DF80800032805D100A9F9
:10D6B00005F10C00FFF7BCFC02E0BDF80000A881FA
:10D6C0002078287200262079A8753046BDE8FE83B0
:10D6D000428913070BD5920708D5427B062A18BF4B
:10D6E000E92903D0CD2918BFF02900D128E17047DE
:10D6F0002DE9FD4F0F4684B0F988F8784FF0000807
:10D7000006F0FCFD5FEA000B6ED0397DC0B204F07C
:10D71000BFFA040068D0F988F878002206F009FE04
:10D720000546F8786071F888E080B87D608184F8FB
:10D7300008803A7D3969E06805F0DBFFDDF844A038
:10D74000C14634E0688806F063FE70802879307145
:10D750003978490603D5B17941F00201B171B8F1C8
:10D76000000F01BF7188DFF8082CD28A914214D1D2
:10D77000B87000200390CDF804A01298059B04997E
:10D78000029000200090DFF8E80B828C384601F010
:10D79000C6FCB07940F00500B07109F10106F988C6
:10D7A000F878F2B206F0C5FD05465FFA86F97DB15C
:10D7B000D9450DDA04EBC90000F1120600203070E3
:10D7C00068780128BED130704FF001086888BCE746
:10D7D000204604F072FA0094109A9DF818105346EF
:10D7E000384600F013F80FE0F8788DF80300BBF12D
:10D7F000000FB87D8DF804000CBFB92010208DF803
:10D80000050000A801F086FC04F089BB2DE9FE4F5D
:10D8100086B00446DDF84890484604F003FA064610
:10D82000484604F01BFA002E00F081804FF00008FB
:10D83000DFF83CAB01E008F1010899F810005FFA4D
:10D8400088F880456FD2F6B2002E6CD009EBC80084
:10D8500000F11205A879C007EDD49DF820004FF023
:10D86000000B082708B14FF0200B0C22002100A864
:10D8700005F057FF2878A0B19AF868106888012948
:10D8800008D1ADF800004BF0080BFF2041F208076B
:10D8900028710FE0A0804BF00C0B0C274FF6FF70A7
:10D8A00006E09DF8180010B14BF0400B0A2768887D
:10D8B000ADF800008DF802B0207D00F03AF801F0DC
:10D8C0005BFB9DF8140008BB0398407D68710398CA
:10D8D000C7829DF81C104176287818B103999AF8F0
:10D8E00068000877039999F8050081F83A000399D0
:10D8F000287900F028FE0398A1888187227D21697C
:10D90000406C05F0F6FE00A801F099FBA87940F004
:10D910000100A8719DF8141000290EBF761E40F07A
:10D920000800A87187E70021484600F04BF804F092
:10D93000F3BA8DF8040001208DF8050000A87047A7
:10D94000F0B5044689B0207B0F4604F007FA0600C4
:10D9500023D065691FBB217B042204F015FAE5B1D1
:10D96000A888ADF80E00E888ADF81000287A8DF888
:10D970001C00F068069000208DF81D002068006AE9
:10D9800000788209287800F0200300F0400108BFE9
:10D990000422009602A8FFF739FF09B0F0BD217BF1
:10D9A000082204F0F1F90028D9D0002DF5D0019714
:10D9B0007189C9B20091037942880178A87806F08C
:10D9C0006EFECDE77CB501220123002402E0002396
:10D9D000641CE4B2057CAC420BDA00EBC4052D7E7E
:10D9E000EE07F4D50C263542F1D06D07F0D50022B4
:10D9F000EEE7047A7CB90BB901290CD1012101723F
:10DA000041798DF8031040898DF804008DF80520C8
:10DA100000A801F07FFB73BD0121D3E7DFF8C41735
:10DA20000B7820B10022CA700221024603E00120D7
:10DA3000C870022102E0184607F0C9B8184607F07E
:10DA4000F1B82DE9F843DFF82809DFF89867807B03
:10DA500000250024F76B00074FF0010920D407F0E0
:10DA600088F9316C421ADFF8541D0B889A4238BF8E
:10DA700001202BD3DFF8481D0978B2FBF3F81FFA19
:10DA800088F8414534BF89465FFA88F903FB1821BD
:10DA900089B2401A306403E0384605F0DCFD4746A1
:10DAA0009FB1F8788145B4BFA0EB09000020F87061
:10DAB000F978786829B9002C804614BF6060F0635B
:10DAC000EAE73C466D1C0746EAE7A8B2BDE8F283E8
:10DAD000F8B5DFF81047027AE56B0E46022A2946B0
:10DAE00046D1078800E0496859B10888B84204BFA8
:10DAF0008878B042F7D1DFF8C80C0078C8700120F0
:10DB0000F2BD002035B1012001E0401C0D466968DE
:10DB10000029FAD1DFF8101D098880B2884227D287
:10DB2000082005F08BFD18B307808670DFF8901C85
:10DB3000DFF83C680978C17000214160E16B09B1F0
:10DB4000686006E0E063B07B000702D407F011F9DB
:10DB50002064B07B00070BD52078082107F078F807
:10DB600030B9DFF8580C02882078082107F03EF819
:10DB70000020F2BDDFF86C1608710FF29100086307
:10DB80000FF2992048630FF225508863704738B52B
:10DB900004000D4608BF07F003F9DFF84806416CA2
:10DBA00011B9446404E00146C8680028FBD1CC6088
:10DBB0000020E060A57131BD10B5DFF828365B6C40
:10DBC00000E0DB684BB1DC79844201BF9C888C4269
:10DBD0009C799442F5D1184610BD002010BD10B5B7
:10DBE000DFF800164C6CA04203D1E4684C6406E0F8
:10DBF0000C4624B1E1688142FAD1C168E16005F0C8
:10DC00002AFD204610BD00009449002070B504464E
:10DC100084B0207A002818BF01280BD0208803F098
:10DC2000A5FC38B9207A032806D101A9204600F0C6
:10DC30004BFE20B902206FE02088ADF80400608A16
:10DC4000403080B205F0FAFC050064D0402200218B
:10DC500005F067FDA07A00A906F068FF9DF80000B6
:10DC600085F8360001219DF8010085F83500284629
:10DC7000FFF78DFF2022214605F1100005F039FD48
:10DC800005F14000E863608A2887628A6169E86B71
:10DC900005F02FFDBDF80400DFF84865A880707816
:10DCA000E871401C707007F064F82880FF2095F937
:10DCB0003510884085F8330095F8330085F8320038
:10DCC00000208DF80800207E10F0010118BF01210E
:10DCD0008DF8091002A806F0F2FE801E85F83000CB
:10DCE00095F83010288F90FBF1F0287295F83010DD
:10DCF000288F90FBF1F201FB120010B1287A401C32
:10DD000028720121288D40F008002885307905F01F
:10DD100083FE002000E0102004B070BD38B504463A
:10DD200007F027F82080DFF8EC1C94F8340009781D
:10DD3000884268D294F83210FF2906D1401C84F83A
:10DD4000340094F8330084F8320094F8311094F8D9
:10DD50003220002001E0401CC0B294F835309842D7
:10DD60000CDA82F0FF0323FA00F5EB07F3D5411834
:10DD7000012303FA00F0104384F8320094F83030A5
:10DD8000208FC9B203FB110292B29A420FD394F8CA
:10DD90003200FF281A460DD094F836006080208D9E
:10DDA00091B940F020002085E36B207A16E0FF2037
:10DDB00084F83200DFF8B805DFF85C3C00791B78A6
:10DDC000584364235843E9E74FF6DF731840208532
:10DDD000E36B94F83050084605FB013384F82E00BD
:10DDE0006362D2B2E07984F82D006284DFF8F40334
:10DDF000826C100002D00846904770B904F1100000
:10DE0000BDE83240F1E394F82A10A07EE92206F042
:10DE100032FC2046BDE83240E1E631BDF8B50446AB
:10DE20001646607D0122FFF7C7FE050037D0002EA1
:10DE300001BFE07D05F12A06F17988422FD1AF1CA0
:10DE4000F37ABA79217E181890420BDBFF2909D1A9
:10DE500095F82A10387E002206F00DFC2846BDE811
:10DE6000F240BCE6FF290BD1FF2098403072307A97
:10DE70007072F17AF0790818F0710020B07202E047
:10DE80007172207E307206F074FF28800121307B91
:10DE90006880BDE8F440D348007905F0BDBDF1BD10
:10DEA0002DE9F047044682B0A078884691469A460C
:10DEB00006F0E9FD05005FD01C2005F0BFFB070060
:10DEC00059D01C22002105F02CFCA07800A906F0F6
:10DED0002DFE9DF80100387502213846FFF757FEE8
:10DEE000B8F80000B880607DF871FF2097F9141031
:10DEF00088407874686800783874207DB874E17D53
:10DF00004843303080B205F045FC0500BD612ED09D
:10DF10001A202870AE1C0020687068804146E08896
:10DF20007080A81D06F0F2FDE0787073DFF8400401
:10DF3000808CF08105F11C00618B01826189318246
:10DF4000A178B174217BF17499F80010317599F8BA
:10DF50000110717599F80210B17586F817A00A9929
:10DF6000E96105F13001C160A17D017203E038462D
:10DF7000FFF735FE00273846BDE8F6872DE9F84F54
:10DF8000DFF860B288460546DBF84810EC7D0027D4
:10DF9000080091469A4604D020468847002840F061
:10DFA0008280B8F80010687D0222FFF705FE0600A7
:10DFB00012D16878C00776D50A98009053464A4631
:10DFC00041462846FFF76CFF06006CD034720121F1
:10DFD0009BF8040005F020FD307A401E8442307C1E
:10DFE00008BF0127FF284BD06878F17CC007307D3F
:10DFF00048BF0024421894424FF0FF0904DB411847
:10E00000F17409FA00F07074B069B37C806A2A7DFB
:10E01000296903FB040005F06CFB307D727C94FBE6
:10E02000F0F1012300FB114C03FA0CF31A43727454
:10E03000AFB100FB1140401C09FA00F010437074AE
:10E04000B169B07C2A7D04FB0020C884707CFF2865
:10E0500005D1307C05F0BFFB86F8109010E006F08B
:10E0600088FE3080DFF8B019C1480978007948434C
:10E07000DFF8A019097801FB000064214843708093
:10E08000F07C317D0918491E8C421CBF717CFF2930
:10E0900000D047B1E8752946707C2876B8F80000B2
:10E0A000BDE8F44F0DE2BDE8F18F000001464D4898
:10E0B000007905F090BBF8B50C462004494D19D401
:10E0C000E0074DD56E6C06F054FE4FF6FF7180B23E
:10E0D0000A461FE03078012809D17069009006F1E6
:10E0E0001002F37CB11C06F11C00FFF747FF30461D
:10E0F00005F062FB287905F0CDFB0600EAD184F437
:10E100000040F2BDA7EB0C039342F668BCBFA7EB3F
:10E110000C0292B2DEB133887788C31A1FFA83FCEF
:10E12000BC45EFDBB079022809D1307CFF281CBF49
:10E13000B06905F041FB3046FFF751FD02E0304683
:10E14000FFF7ECFD2879012105F066FC05E08A4225
:10E1500003D02879012106F03AFD84F00100F2BDD8
:10E160000020F2BD70B50D460446298800F02AF85B
:10E1700008B1B82070BD00F0ACF8DFF85C1C09787D
:10E18000884201D3B22070BD182005F057FA06006E
:10E1900001D1102070BD0020306034711222294658
:10E1A000B01D05F0A6FADFF8340C016811B906605D
:10E1B00004E0014608680028FBD10E6000F0ACF8CE
:10E1C000002070BDDFF8142C126842B1137983422D
:10E1D00012BFFF28D3888B42F6D1901D70470020D4
:10E1E00070470000E040002084490020D442002015
:10E1F00010B5DFF8E82B1468FE290CBF01230023BB
:10E2000003E0914208BF012324683CB1E2888242C6
:10E21000FAD12279002BF4D0104610BDFE2010BD9B
:10E220007C49002010B50022DFF8B03B07E01C79E4
:10E23000844204D1DC88D2B221F81240521C1B68FF
:10E24000002BF4D1D0B210BD38B5DFF8903B1A687E
:10E25000002401E0144612688AB11579854204BF92
:10E26000D5888D42F6D11068002C0CBF1860206054
:10E27000104605F0F0F900F04FF8012032BD002003
:10E2800032BDF8B5DFF8545B04462868002603E089
:10E29000076805F0E0F9384658B102790168A242F2
:10E2A00004D1002E0CBF29603160F1E70646084614
:10E2B000F2E7BDE8F1402FE00021DFF8202B03E07A
:10E2C0001379834208BF491C1268002AF8D1C8B2EA
:10E2D00070470020DFF8041B00E0401C096800299B
:10E2E000FBD1C0B2704710B5DFF8EC0A00781421FA
:10E2F0004843811C002289B2422005F0C4FD04007D
:10E3000018BF00F002F8204610BD80B500F0B4FF41
:10E31000422005F0FEFD01BD10B586B00020ADF82D
:10E320000000DFF8B80A046815E020798DF80400D1
:10E330001222A11D0DF1060005F0DBF9BDF8000069
:10E3400014225043811C01AB89B2422005F0E1FD4B
:10E3500000F099FF2468002CE7D100AB02220021D5
:10E36000422005F0D6FD06B010BD0000A4CC01008F
:10E37000B045002030B587B0002400AB0222002158
:10E38000422005F013FEC8B9002512E014206843AE
:10E39000811C01AB142289B2422005F007FE38B976
:10E3A0009DF804000DF10601FFF7DCFE00B9641CC6
:10E3B0006D1CBDF80000ADB28542E7D3A0B207B036
:10E3C00030BD10B500228A70CA700023027F0A7522
:10E3D000826A4B738B80838D4B83C3894B8112F888
:10E3E000013B0B7003F00304032C66DA002C18BF0A
:10E3F000022C34D103F00C040C2C08D0DB065CBFDB
:10E4000012F8013B8B70082C08BF012300D00023B9
:10E410000C2C0B7306D11378547803EB04238B80F8
:10E42000921C0AE0437903F00303012B05D10B781A
:10E4300043F00C030B7043898B800B78DB060ED402
:10E440001378547803EB0423CB8012F8023F5478FE
:10E4500003EB04230B81921C12F8013BCB7012F8E2
:10E46000013B4B750B781B0618D512F8013B4B701E
:10E47000FC24234221D103F00304032C1DD00324E8
:10E4800023420DD012F8013BCB750B7803F0030348
:10E49000022B05D112F8013B0B7601E000234B70F3
:10E4A0000A610B7D9A1A836A9A180A75037F9B1A70
:10E4B0004B73D2B2007F904202D20020487308759D
:10E4C00010BD70B50C4686B00546207800F00C01F2
:10E4D000020648BF41F0800141F0020600F003014E
:10E4E000012908BF46F01006800648BF46F0200606
:10E4F0000C22002100A805F014F98DF80260607864
:10E500008DF80300ADF80050FFF715FA00F034FD68
:10E510009DF81400A8B90399012048760399A078C2
:10E5200081F83A000399E07800F00DF80399207E15
:10E5300081F84C000399E07D81F84B0000A800F0C1
:10E540007EFD06B070BD81F83B000398E188C1876D
:10E550003E3021894180617DC172704702460020B2
:10E56000537B042B00D0704730B5137CDBB9526964
:10E57000CAB113780324234201BF4B68147B5D7D2D
:10E58000AC4210D1548909888C4202BF9188DC8842
:10E59000A14208D191789A7891421DBF197801F073
:10E5A0000C010429012030BD1CB503460846032296
:10E5B0004178114208D0DFF8C41A4C6B210013D007
:10E5C00000221946A04713BD0190ADF8003000A904
:10E5D000DFF8D80A02F0F5F930B1062141730021C5
:10E5E0000068407B01F02DFC13BD2DE9F04304468B
:10E5F000DFF8888A98F8030087B0E57A08B9BA206E
:10E60000D8E00127002600F03DFC8DF80570207E43
:10E61000400709D59DF8020040F040008DF8020047
:10E62000207E000758BF0327208BC10648BF47F054
:10E630004007000710D59DF8020040F0C0008DF89B
:10E640000200217E9DF8030089064CBF40F00100C6
:10E6500040F002008DF80300217ADFF8549A51B996
:10E66000B9F81600ADF800009DF8020040F0040073
:10E670008DF8020035E00F2947F004000AD19DF81B
:10E68000021041F008018DF8021007462188ADF80C
:10E69000001026E0022902D100F013FD21E0032939
:10E6A00004D100A9204600F00FF91AE0012918D181
:10E6B0009DF8021099F868204AB141F008008DF8E1
:10E6C000020047F4805700F0FCFCFF2508E041F011
:10E6D0000C018DF8021007464FF6FD71ADF80010E1
:10E6E0002688207EC00719D59DF802000C2108421B
:10E6F00007D1208806F070FD08B9BB205AE000F071
:10E70000D9FC207EC00709D59DF8020000F00C015D
:10E71000042904BF40F020008DF80200608A8DF8C3
:10E72000040000A800F028FC9DF8140000283FD148
:10E730000398C782E17E41760399207F8876207A0C
:10E74000012803D1039999F8680008770398A17EFE
:10E7500001852830218B4180E17F01710399A07AE6
:10E7600081F83A00039880F83B50039886873C3044
:10E77000E1894180218A8180A17E81730399A07FF4
:10E7800081F84B000399607F81F849000398628A01
:10E790006169406C04F0ADFF207E400605D5D8F8D5
:10E7A0004C1008001CBF00A8884700A800F047FCD8
:10E7B0009DF8140007B0BDE8F0830000B6420020C9
:10E7C000D642002010B50078632420B1052007F060
:10E7D00091FAC0F15604DFF8D808007B20B107F0A9
:10E7E00089FA201AA0F10E04E0B210BD13B511464B
:10E7F0001A46DFF8D8381C68230008D001AB009314
:10E800000123A04708B1002016BDB22016BDB620D6
:10E8100016BD38B5DFF86448E469250001D0A0478B
:10E8200032BDB62032BD0000B842002038B50346E4
:10E83000B5200C46A22B1546DFF840180CD0A32BB0
:10E8400002D0AB2B10D032BDDFF8981809680A004F
:10E850000FD0884728800BE00A6A110009D02946AA
:10E860002046BDE83840104789692846FEF7E0FB9E
:10E87000002032BD0146B520AB2900D0704780B5DD
:10E88000DFF8F80780691146FEF7D2FB002002BDD1
:10E8900038B50C46DFF81818CA8A0125824206D11D
:10E8A00002F0C8FB01462046FEF7C2FB0AE0498B96
:10E8B000814203D1204602F0CEFB03E02146FEF761
:10E8C0004FFC0546284632BD70B504460D4601266C
:10E8D00002F0B0FB01462046FEF7AEFB18B102F095
:10E8E000E7FE288004E029462046FEF74CFC064659
:10E8F000304670BD10B504460E2004F09FFEA0B156
:10E9000094F83810017004F138014A7842708A781E
:10E910008270CA78C270CA8882800A89C2808A7A64
:10E920000272897C01736188418110BD10B50C466B
:10E9300082B0217F052904D104F10801FFF7A8FF67
:10E9400038B300A904F1080006F06EFCBDF8000021
:10E95000E8B12078012815D1BDF80010DFF898073C
:10E960000C2202FB0100DFF850180818A1690268A8
:10E97000914205D3BDF800206282491C016004E089
:10E98000A22016BDBDF800006082002016BDA120A7
:10E9900016BDC82016BD38B505460C46002060825D
:10E9A000A06910F1010F32D0207C012810D1DFF8CE
:10E9B0000017CA7AB320002A04BF91F84110012938
:10E9C00026D1207D07F090F86082F0B1002032BDA2
:10E9D00048B92846FFF7AAFFD0B161680978032239
:10E9E000114206D132BD022809D12846FFF79EFF09
:10E9F00070B121462846BDE8344006F056BD0328D4
:10EA000003D12846BDE8344090E7A12032BDA320C1
:10EA100032BD0000D2420020D34200203EB5044661
:10EA200000202569688201A92088FFF731FF90B393
:10EA300000A901A806F0F8FBBDF8000058B3BDF826
:10EA40000020DFF8B416DFF874370C2000FB021248
:10EA50009A1800232B74BDF800306B821368AB61E9
:10EA60004FF47A7513685B1C13604FF47A72B3FB32
:10EA7000F2F205FB123272B9BDF8002000FB021061
:10EA8000DFF8841701220A544FF40061DFF87C0795
:10EA9000007804F0C1FF206900F108012088FFF729
:10EAA000F7FE2069418AD9B9DFF8D055A969083045
:10EAB000FEF7C2FA48B902F0BDFA0146A869FEF7AE
:10EAC000BBFA10B900F010FB50B12169208806F0A4
:10EAD00035FD10B1216900204882002021690874A9
:10EAE0002569688A30BBDFF8C805C17A002904BFF0
:10EAF00090F84100012818D13A230DF102020121BA
:10EB0000002003F075F870B9012028749DF8020008
:10EB100028753A206882DFF834070168A961016826
:10EB2000491C016001E0002068822069408A08B920
:10EB3000A120207537BD10B50446202004F07EFDCD
:10EB40000028206133D02046FFF768FF2069418A02
:10EB500041B3017C012902D10E21017710E0A168A7
:10EB600049B9DFF8181589690830FEF765FA10B958
:10EB700000F0BAFA08B10D2000E0052021690877FD
:10EB8000A178206901F0030101290EBF0521DFF8FA
:10EB90002015097B41702069407807F0ABF82169A6
:10EBA000487710BD04F057FD0020206110BD1020F3
:10EBB000207510BDF8B505460E46202004F03EFD38
:10EBC000040040D0DFF8E874708BF98A88420CBFEB
:10EBD000022001202070717B3069401A6060707BD8
:10EBE000A070204606F021FE307800F003000128D6
:10EBF0000CBF0520387B6070607807F07BF8607789
:10EC0000217F306908183061217F307D401A617F93
:10EC1000401A3075E07021462846FFF7BCFE0546D5
:10EC20002078022806D102F005FA014604F1080016
:10EC3000FEF7FEF91DB9204606F04AFE05462046BD
:10EC400004F009FD00E010252846F2BD10B5044689
:10EC5000E06890F8381001F00301012902BF216932
:10EC60000A7C002A01BF3830C0680278052A06D124
:10EC70004078012816BF06280220032008740020CF
:10EC800021690870E068216990F848008870E068A0
:10EC9000216990F84200C870E06821690069486005
:10ECA00002F0C8F9014620690830FEF7C1F9206971
:10ECB00006F00EFE207510BD01207047DFF89005AC
:10ECC000DFF890150160DFF890154160DFF88C15D2
:10ECD0008160DFF88C15C1607047F0B5C26892F8AA
:10ECE0003810126911F0030418BF022C02F8011B3E
:10ECF00039D111F00C0318BF082B01F0100504D016
:10ED0000042B07D1022C00D18DB9C66896F83B6060
:10ED100002F8016B0C2B08D1C668B68F02F8016BA4
:10ED2000C668B68F360A02F8016B022C00D1D5B93D
:10ED3000C468E48F02F8014BC468E48F240A00F031
:10ED40004FF800F04DF8240A002B18BF082B02F8EA
:10ED5000014B03D00C2B18BF042B04D1C36893F8CC
:10ED60003A3002F8013B01F00203C46804F12A05BD
:10ED70000327EE7B3E4208BF002B03D194F82A60A4
:10ED8000360603D5EC7F02F8014B0BE0DFF8EC52BE
:10ED90006E7884F84A60C6686C78348502F8014B56
:10EDA000641C6C70090614D5C16891F8391002F81A
:10EDB000011BC16891F839403C421EBF91F84B10CD
:10EDC00002F8011B002B04D0C06890F84C0002F838
:10EDD000010BF0BD00000000A8CC0100D4490020C8
:10EDE00002F8014BC468B4F84040704730B502687F
:10EDF000917801F003040123002C18BF022C037149
:10EE000027D111F00C030CD0082B08BF02250ED01F
:10EE1000042B08D1022C01D1CC060BD4022404719E
:10EE20000AE0022505710C2B02D10579AD1C057194
:10EE3000022C01D1CC060CD40479241D002B18BF60
:10EE4000082B047103D00C2B18BF042B01D1631CB9
:10EE500003710B060CD503795B1C03710324D27874
:10EE6000224205D05A1C0271890744BF511C01710E
:10EE70000179491C017130BD0069002818BF04F0F8
:10EE8000EABB70470C22002100A804F04ABC00B580
:10EE900085B000F039F8416849788DF80210426871
:10EEA000921C0429019205D14168123102914068F7
:10EEB0001A300CE0012918BF06290AD14168897C63
:10EEC0008DF8031041681331029140681B300390A4
:10EED00008E0002102914168123103914068807E70
:10EEE0008DF81000029850B1FEF721F9012806D1E3
:10EEF00002F0A0F801460298FEF79EF810B100A8B3
:10EF000000F05EF905B000BD4189ADF80010704712
:10EF100080B5FFF7F9FF406840788DF8020000A83F
:10EF200000F07EF901BD41680978052902D0092960
:10EF300001D07047ABE7EBE7DFF83013DFF83023A1
:10EF400009781278114304BF417A002905D141683C
:10EF50000978062918BF07290DD0017B39B9416806
:10EF6000097805291CBF4FF49A7006F0D9BEDFF866
:10EF7000041309680847704710B584B0044601942B
:10EF80000020E060019908610199087501A8FFF768
:10EF90002DFF019846490088C98A884211D00198FE
:10EFA000807880060DD5DFF8A81201980968884797
:10EFB0000198006928B901980199807800F0DF0074
:10EFC0008870207D002839D150208DF800009DF8F0
:10EFD0000810207908188DF8010060798DF802007A
:10EFE000206938B1027F407F9DF8011080184018D9
:10EFF0008DF8010000A800F08AF9D0B12188418085
:10F0000001214176A17880F8381000F13801E278CA
:10F010004A7022798A7203699DF80820D318CB6060
:10F020000A7422691AB1CB68127FD218CA60E060F4
:10F030001FBD2046FFF720FF102020751FBD10B513
:10F040000446207D88B92046FFF747FE206908B1B5
:10F0500000F00FF8E068217D19B900F02BF9207558
:10F0600003E004F0F8FA0020E0602046BDE810401C
:10F0700002E7DFF8DC11496820460847E04000203D
:10F0800038B50D460A49C98A0446688B884205D0BE
:10F09000204606F0A1F808B9012032BD29462046D5
:10F0A000BDE83840DFF8A821D26810475DE50000D0
:10F0B000B04500209DF8020040F020008DF80200CD
:10F0C00070472088ADF800007047000024480020F9
:10F0D00080B5FFF7F3FDDFF89C11DFF8D40108607D
:10F0E00001BD000028480020DFF8B0028069082236
:10F0F000FF2104F07CBE0000F8470020406940B1C9
:10F10000427803231A4204D10A46017B807805F035
:10F11000B2BA704742790179C07805F0ACBA2DE9EE
:10F12000F04105468846287D383017461E46C0B255
:10F1300004F030FB04003DD0012020701C22294641
:10F1400004F11C0004F0D5FA0A224146A01C04F088
:10F15000D0FAA78130782074B078A0747078607489
:10F160000798E0740020E0620898606106982076B5
:10F170006889E08109986076287D30B104F1380013
:10F18000E0622A7D296904F0B4FA617FDFF80C029D
:10F19000032211420AD0816B080020461CBFBDE843
:10F1A000F0410847BDE8F04104F006BB2146BDE848
:10F1B000F04132E0BDE8F081F8E7FFFFF4E7FFFF40
:10F1C00038B50446202004F0E5FA050016D00420E6
:10F1D0002870102220886880A0782871E0786871F3
:10F1E000A81D00F00DF8E16805F11600FDF798FF85
:10F1F000207CA8772946607CE8770AE031BD281D8D
:10F20000616804F076BA0000FCE7FFFF7B41002054
:10F210002946BDE83440DFF80002007804F0DBBA8C
:10F2200010B50446062004F0B5FA68B10821017053
:10F2300021884180A17801710146DFF8DC01007866
:10F24000BDE8104004F0C7BA10BD000070490020AE
:10F25000F448002037EB00004DEC0000B9EC000052
:10F26000B5EB000001208DF800007047D742002068
:10F27000F2490020D84900200020ADF8000000AB82
:10F28000022200217047BDF80000401CADF80000CC
:10F290007047DFF8E4070078401C00EBD0704010A6
:10F2A0007047DFF8D817DFF8D809C860704700004A
:10F2B00027EF000038B500F0A0FB00F11601097C33
:10F2C000082918BF042908D0217801F00301012979
:10F2D00002BF21690978062913D161884FF6FE72B1
:10F2E00091420ED0C08A814204BF207F002803D003
:10F2F000204601F0EFFB02E0204601F077FC0546D6
:10F3000000E0C225204604F0A6F9284632BD38B5F3
:10F31000044620786178081880B204F08FF905005F
:10F3200013D02278002104F0FCF94FF6FE706880BB
:10F3300002F0BEF9A880207840192861607828750D
:10F3400001F08DFE6875A0782876284632BD70B52C
:10F35000DFF8D046054694F82600042814BF082894
:10F36000C22088B00E4617D0A56284F82E6000F047
:10F3700017F801208DF80400009500208DF8070093
:10F380008DF80560022084F826000020DFF83C1389
:10F39000087000A806F04FFD08B070BDE0400020E6
:10F3A0001C22002100A804F0BCB930B5DFF8745667
:10F3B0000446686F87B0F0B9082004F03FF9686729
:10F3C000B8B1216801601C2221790171696F6079EF
:10F3D0004871696FA0798871FFF7E3FF206800909A
:10F3E00020798DF8050060798DF8040000F019F897
:10F3F00002E0102000E0012007B030BD10B5DFF8BA
:10F400002446606F18B104F026F900206067BDE85B
:10F41000104001F0D5B800007B41002008B0BDE8E5
:10F42000F08100208DF8070000A806F004BDF0B5BB
:10F430000F46DFF8F015012689B0044681F82660F2
:10F4400000251C22002101A804F06BF9032001947F
:10F450008DF809708DF808008DF80B50344218BFF4
:10F460006D1C7600FAD100A95A2006F0BFFC9DF869
:10F470000000EDB268434FF4904148434FF47A7175
:10F48000B0FBF1F4DFF8C00ADFF8245A0088E88105
:10F490004FF48061287A05F0C5FB287A22464FF4A4
:10F4A000806105F094FB01A806F0C5FC09B0F0BD31
:10F4B000012200E000222DE9F843DFF8689509F108
:10F4C0000E060C469046F18A0546224601F046F8A3
:10F4D000070008BFCA207BD0388900F0AEFC08BF07
:10F4E000C32075D03189884208BFC22070D03888C7
:10F4F000F18A814218BFF082F08A02F067FAF87A46
:10F50000401C89F83800294609F13900FDF790FDC3
:10F5100002208DF8010000A802F007F8050050D085
:10F5200028690621017099F80E1000F8011F0120CA
:10F53000A87701F07FFD68620120A8764020E8826C
:10F540003889688085F818802846FFF7B3FE5FEA9F
:10F55000000838D10920307609F11A013889B081C4
:10F56000B07AA04218BFB4724B2006F04EFC09F1ED
:10F570002401502006F049FC09F11801E12006F0B1
:10F5800044FC09F11601532006F03FFCDFF8B809EE
:10F59000DFF81C490188DFF85C5AE18101212A88E3
:10F5A0000280207A05F022FB207A4FF4806105F07A
:10F5B00039FB28888200207A4FF4806105F007FB30
:10F5C00001E04FF01008DFF8301A002008704046C4
:10F5D000BDE8F2832DE9F241DFF8484404F10E055D
:10F5E0008046287E042814BF0828C22087B016460B
:10F5F0001F4646D0BDF8380000F01FFC08BFC320EE
:10F600003FD0FFF7CDFE0320287607A9502006F053
:10F61000FCFB0EA94B2006F0F8FBBDF81C00E882AD
:10F62000AE724146BDF83800A881A77304F13900D5
:10F63000FDF7FEFC07F0CE0040F080008DF81A00C8
:10F640008DF80B6002208DF8160004F12D01BDF835
:10F650003800ADF80E00BDF81C00ADF81800002011
:10F660008DF808000F20E877542006F0CEFB0F201D
:10F67000A87704F12C01472006F0C7FB00A806F08C
:10F68000D3FBCBE610B5DFF89C1391F826100446A7
:10F690000020082918BF042984B015D14FF6FD7049
:10F6A000ADF8000001F0C6FC019000208DF80900C3
:10F6B00060788DF8080020788DF80A0000208DF819
:10F6C0000B0000A801F052FE04B010BDED4900206F
:10F6D000F8B504462568002D75D0DFF8D467726A46
:10F6E000100002D0217928469047687B022838D143
:10F6F000A87A800735D52079E9281CBFCD28F028C5
:10F700002FD0A87C00060CD5A87E50B1A87328681D
:10F71000008801F02BFF48B94FF4987006F000FB09
:10F7200004E0DFF8800C0078401CA873207950B901
:10F73000002704E04FF49B7006F0F2FA7F1C60791A
:10F74000FFB28742F6D3A87B401EA873A87620217B
:10F7500004206873DFF8500C00882881307A04F0A8
:10F760005BF9687B022818BF06282CD1A87AC0074D
:10F7700029D521792846FFF7C1FC68894FF6FE712B
:10F78000084068812868008801F0F0FE0028207990
:10F7900012D170B940F22F1006F0C2FA002560793C
:10F7A000EDB285420FD24FF49B7006F0B9FA6D1C92
:10F7B000F5E740F2311002E028B940F22D10BDE823
:10F7C000F24006F0ADBAF1BD2DE9F04F99B08B468D
:10F7D000002604469046B24604A9FEF7F2FD9DF8C5
:10F7E0001D00002804BF9DF82400002808D09DF8C3
:10F7F0001000251D400606D5E88801F0B7FE10B1BF
:10F8000040F2351065E09DF81000864F00F00C00C6
:10F8100004289DF810000CBF4FF00109B146800686
:10F8200017D5B9F1000F4FF0010A12D12989FA8AD0
:10F83000688D914205D100060BD5E888ADF82A10F5
:10F8400002E0000605D4084604A9FFF719FC0028C9
:10F850003DD1698D080612D49DF8100040060ED5E2
:10F860009DF811000322104209D19DF8100000F00C
:10F870000C020C2A1EBF00F00C00082801269DF87F
:10F88000100000F00300022804D1288904A9FEF723
:10F890008BFE98E0012812D12EB1080603D42889E6
:10F8A00004A9FEF70EFE04A80C902889ADF82C00E0
:10F8B000A8788DF82E000BA8FDF76DFE83E00028D8
:10F8C000FCD1F87A012804BFA878002804D14FF4AD
:10F8D0009A7006F025FA76E002208DF85C002889FF
:10F8E000ADF8540095F82A0000063BD502208DF8AB
:10F8F0003C00E888ADF834009DF813008DF83E0018
:10F900009DF812008DF83F00B88CADF84000BDF8AE
:10F910001600ADF84200BDF81800ADF844009DF89F
:10F920002400ADF8460008981290688DADF84C00A0
:10F930009DF826008DF84E0020798DF84F00A87BA9
:10F940008DF850009DF825008DF851009DF8270096
:10F950008DF8520094F830008DF853000DA8FEF792
:10F9600044FE30E01EB1288904A9FEF7AAFDB9F1D2
:10F97000000F1AD0A8898DF82600DFF83405D0F8DA
:10F9800028C0BCF1000F1ED0BDF85400F98A88428F
:10F9900019D1CDF80880CDF804A033462079009025
:10F9A0005A4604A915A8E0470DE0A87B0390CDF8BE
:10F9B0000880CDF804A05B46E87B009015A9BA8CBE
:10F9C00004A8FFF7ACFB19B0BDE8F08F03F0D0BB83
:10F9D00003F069BC10B500F010F8807B000707D475
:10F9E000DFF87009016C19B10078082104F014F8EF
:10F9F0002046BDE8104003F06FBC0446094870473C
:10FA000010B5012904460BD1002102F004FCDFF8F7
:10FA10003C0B02782046BDE81040002102F0C9B935
:10FA200010BD0000B045002003F057BC10B5DFF852
:10FA30008014DFF81C4B0872002084F82600DFF8E1
:10FA4000140B0068400406D4DFF80C0B006810B1FA
:10FA5000012180F82A1006F071FA04F174000021E7
:10FA60008160416001F034FF06F06BFA00206067AE
:10FA7000BDE8104006F03ABA59CC010054420020CB
:10FA80002DE9F041DFF8CC58287A0C4621048EB0DD
:10FA90001CD503F0FFFE050015D000200FF2E41185
:10FAA00000E0401CC0B2024611F83230FF2B07D0F4
:10FAB0002E78B342F5D101EBC20128464968884748
:10FAC000284603F079FE84F40040D6E0A1040BD56B
:10FAD00000F0DCFF050004D000F090FA284603F0A7
:10FAE0006BFE84F40050C8E0DFF8642AE10702F1FD
:10FAF00018030ED5187D0F2808D1002000F0E3F878
:10FB000020B1DFF8B80A006800F0BDF984F0010008
:10FB1000B3E061041AD5DFF8C40A017806290AD1D6
:10FB20000B210170DFF8B80A017892F91820012042
:10FB30009040FFF77CFCDFF8AC0A0268287A4FF4AB
:10FB4000804105F053F884F4804096E0A10640F12E
:10FB50008880202105F07CF8296D084308BF012624
:10FB60000BD0002605F005F9296D21B1884234BF7C
:10FB70004FF0FF36461A760848D000F09FF8074647
:10FB800021E001F05FF801AA4FF0FF308DF802008C
:10FB90003868C17F006A01F03DF901280DD1788AEB
:10FBA00040F08000ADF832000DF13201B87B887072
:10FBB000002200A901A8FFF707FE06207873387B12
:10FBC00000F03CFE47460FB300220421384600F007
:10FBD000DBFE80463889B0422CBF801B0020388174
:10FBE00038890028EED1B87B01280AD1B87A4007BD
:10FBF000C7D406207873B7213868407B00F021F91C
:10FC0000E0E70028BDD101207873DBE700F06FFD4D
:10FC100000220121002000F0B7FE18B1287A20212F
:10FC200003F0FAFE00F04AF8B8B1078903E0018951
:10FC30008F4288BF0F460022042100F0A5FE002855
:10FC4000F5D1B6B2BE4238BFB81B0004C20B287A49
:10FC5000202104F0BCFF05F08CF8286584F020001A
:10FC60000BE0600508D501F078FB01219889FFF7CA
:10FC7000ADFE84F4806000E000200EB0BDE8F081AD
:10FC8000AD0301000A000000A5060100020000000B
:10FC900087020100050000008B040100070000003E
:10FCA000590301000C000000B5FE00000D0000002B
:10FCB000FDFF0000FF000000000000000022042102
:10FCC000002000F061BE00B587B0182200F0D9FB1B
:10FCD00000F004F806F0D3F807B000BD02208DF85C
:10FCE0000800DFF86C08418B808CADF80A00ADF895
:10FCF000001000208DF8140000A8704710B50C000B
:10FD00008EB012D0014600AA204601F083F89DF87B
:10FD1000060050B19DF81C309DF8012021460020BE
:10FD200005F0DFFF08B1A42000E000200EB010BDF8
:10FD300070B504468EB0A07ADFF8145840064FF62E
:10FD4000FF7609D52068008801F010FC08B1304624
:10FD500006E02068008800E0688B00F06EF862D052
:10FD60002168088001F002FC014620684A1E924189
:10FD7000D20FC281DFF8C8190A68DFF8D8170968FE
:10FD80004B044BD457208DF80000722300A8437019
:10FD900002736F23837001746E238DF80330672321
:10FDA0008DF8043043238DF8053068238DF8063034
:10FDB00069238DF8073070230372130E8DF8093014
:10FDC000130C8372130A0A0E42738DF80B300A0C5F
:10FDD000827305A80A0A8DF80F200021242203F05F
:10FDE000A0FC02208DF81C00ADF814600021A88C46
:10FDF000ADF81E0002208DF8200011208DF8330090
:10FE000000A80D9005A806F041F805000DD0206867
:10FE1000407B294600F015F838B10BE0DFF8B41A42
:10FE200006F034F8F1E7CD25F1E71CB101212046B9
:10FE300000F088FC28460EB070BD4FF6FE71884277
:10FE4000704738B504460D46142003F0A3FC60B19A
:10FE50000C2101708470457000218173014600F00F
:10FE6000E9FC03F0B8FC002032BD204600F09CFD08
:10FE700038B106214173007B02F01EFA204600F0E3
:10FE8000DDFC102032BDDFF8C81691F82C200F2AB7
:10FE90000DD160B191F82610082918BF042906D1A8
:10FEA0000246DFF8B004007A012104F090BE7047EA
:10FEB000E04000203EB50446A07800F075FD050046
:10FEC0003BD06078E8736078F12818BFCD2804D063
:10FED0001A281CBFE928E1280BD10021284600F090
:10FEE00031FC30B16A896178288906F0ACF8288144
:10FEF0001BE060788DF808000195A07B8DF8090063
:10FF0000287C002801A802D1FFF7E2FB01E001F004
:10FF1000C5FA9DF80830E92B07D128680121009126
:10FF20004189E27B008801F0A9F8687B022804BFC0
:10FF300006206873A07800F081FC00F0D8FB02482E
:10FF40000088FFF7A0FF37BDAC420020F8B505469A
:10FF5000AE1C0024F07890B131890824FF20FEF710
:10FF600031F920B1F07840F001002C24F070F078E5
:10FF700000F0030001283AD144F0110437E0F07E8C
:10FF8000DFF8CC7578B1F17F002918BFFF2905D1C2
:10FF90003089F98A88422AD1222428E06A6AB07F0F
:10FFA00002F014F923E0308901F0E0FAF98A02281E
:10FFB000308908BF0124884208BF44F0020434B1EC
:10FFC000A97800290CBF44F0200444F0400401F05B
:10FFD000CDFA0128A87808BF44F0010438B1A86A16
:10FFE000007801F099FA012818BF04F0FE042046B9
:10FFF000F2BD0000AE4200207A4100202DE9F0431E
:020000040001F9
:100000000646341D8FB0207900281FBFDFF8DC09B9
:1000100000880028FFF737FF2179706801AA00F0F7
:10002000F9FE00286CD00DF105070120797802292E
:10003000F978A8BF00200229BDF80E10A8BF002043
:100040004FF6F87291421CBF4FF6F972914257D0A9
:100050004FF6FA7291421CBF4FF6FB7291424FD09D
:10006000DFF8EC84B97898F81220914248D1002842
:1000700046D00BA8417A002942D1218B81800DF115
:100080000E05608CA880787938B1AB7C9DF805208E
:100090007168012005F025FEB8B901A8FFF756FFE9
:1000A0008146787998B998F80B0000281CBF09F0B0
:1000B000220022280BD009F04200422805D10B98DB
:1000C0000178062918BF072901D0CF2019E05FEA7F
:1000D000496019D50B980178032918BF042904D069
:1000E00007291CBF0A290C290AD1032904BF40781B
:1000F0000D2809D001A801F0E3FA012804D195E008
:10010000D32005F00DFE91E0A08EB8F824108842AF
:1001100008D10020009096F83A20618E208B0023B1
:1001200000F0ACFF7879E8B1618E208B01F066FCBD
:10013000070042D070689DF805100818F978407BD8
:10014000814202D0F8700020786070689DF8052028
:1001500010180421401C03F0EEFA7968884265D338
:10016000401C786008F124008078042818BF092812
:100170005CD15FEA896035D596F83A008DF80000C9
:1001800006F13A0041788DF8011080788DF8020070
:10019000287A012802BF6888218B884207D1BDF8E0
:1001A0000E0001F0E3F9022804BF00202872E26A81
:1001B00000A901A8FFF708FB38E098F86C000128B7
:1001C000D0D10B980078062802D15FEA4960C9D4E3
:1001D000A8884FF6FF71884228D0314601A800F068
:1001E00028F823E05FEA496020D50B9800780428BE
:1001F00007D1A87C022819D101A9002001F0FDF83F
:1002000014E0072806D1A87C04280FD101A801F02A
:1002100073F80BE0032804D1002101A801F092FA41
:1002200004E00C2804BF01A801F0E8FA0FB0BDE813
:10023000F08338B50D460446DFF8941860890978D4
:1002400041B1DFF80C13C98A884204BFBDE83140D0
:1002500001F03CBE002102F05CF800281EBF80794E
:100260001821084208D0E88C0090AB8B627F61892E
:10027000A08902F0CDF831BD6189A089BDE8384080
:10028000002201F04FBEFEB5DFF8C44204F10E05B6
:100290000746287E03281CBF0128092859D17978F0
:1002A000DFF83863002939D1022005F0CBFE7888C9
:1002B0002881B91C532005F0A8FD287E09281CBF01
:1002C000E88A01F083FBFEF7CDFF00A9422005F08C
:1002D0009CFD0420287601A94A2005F087FD01A98C
:1002E00004F11C00FCF7A4FE30780B2802D1062094
:1002F000307003E0E88A0021FFF768FB29890320BA
:1003000005F0A0FEA989042005F09CFEA07B00F06A
:10031000AFFF05F07AFD00F0E5F918E041F20300C7
:1003200005F090FE3078DFF8B8180B2804BF0A20DB
:100330003070002008704FF4804100F07BFA04F028
:1003400071FC7978E88AFFF741FB0020287600F0FD
:1003500037F9F7BDE04000207D49DFF888384A6F63
:10036000A2B991F82610012904D0052906D0062942
:1003700008D00BE0D9680A0013D0084759680A0072
:100380000FD0084799680A000BD00847002A19BF08
:1003900091790129407802F0D1BD59690A0018BF4E
:1003A00008477047D2420020B04200202DE9F043B8
:1003B000DFF834580446287A83B04FF4806104F0A3
:1003C00031FC01A9502005F011FD102003F0E2F9E5
:1003D0000600DFF87C8108F116074FF6FF7908D098
:1003E000607830B9F88948451CBFBDF804108142D7
:1003F00015D0EA2060703946532005F006FD08F15B
:100400001A014B2005F001FD08F12401502005F0F0
:10041000FCFC08F11801E12005F0F7FC76B302209E
:100420003070F88948451CBFBDF8041081421DD1C9
:10043000BDF80400F8813946532005F0D7FCB8F820
:100440001600708008F11A014B2005F0CFFC08F16E
:100450001801E12005F0CAFC002000900023DFF81D
:100460006C080278F989B88800F008FE607870702E
:10047000314603203874287A03F0ADF9BDE8F783DC
:100480001C22002100A803F04CB930B505468DB000
:100490006C68297C686907AA00F0D3F89DF81C00F5
:1004A000002850D1287C0B284DDB207A022804BF7D
:1004B000207BFF2847D1264890F82610406F02295C
:1004C00018BF062905D000283DD0807901283AD1EF
:1004D00007E030B90090627C61892088002300F039
:1004E000CDFD2088ADF8040008226089ADF8060033
:1004F0000DF12301A07B8DF80800A089C00B8DF8B9
:1005000009009DF820008DF80A009DF822008DF862
:100510000B009DF81D008DF80D009DF81E008DF854
:100520000C00607C8DF80E009DF821008DF80F0006
:100530009DF82E008DF810000DF1110003F0D9F890
:1005400001A802F089FD0DB030BD00005FCC0100B4
:10055000B045002094120050684900202DE9FC416C
:100560000D4690460FF2440104460CC900A800272E
:100570000CC0214600A8FCF75FFD00B90127DFF899
:100580009409866F06E0214606F10C00FCF754FD45
:1005900030B9B6693EB1002FF5D13088A842F8D104
:1005A000B0784045F5D13046BDE8F681FFFFFFFF4A
:1005B000FFFFFFFFDFF85C09806F70477442002087
:1005C00038B5DFF85049A06F002803E0856903F0D3
:1005D00042F82800FAD10020A06731BD7D410020FB
:1005E000C2420020CC49002070B504461546207850
:1005F0000870607801F8010FA27840EA02100870D4
:10060000E07801F8010F4E1C227940EA8200087060
:10061000627940EAC2000870A27940EAC21008700C
:100620000822E11D304603F064F80836032204F185
:100630000F01304603F05DF80F2DA4BFA07CF070D1
:1006400070BD70B506461446307820700D4616F819
:10065000010F00F00F006070082230780009A070D0
:1006600016F8010F00F00300E0703078C0F380004E
:1006700020713078C0F3C300607116F8010BC00917
:10068000A0713146E01D03F034F8083603223146EC
:1006900004F10F0003F02DF80F2DACBFF07800200F
:1006A000A07470BD10B5044682B06078FFF792F96F
:1006B0006078EB2818BFE12803D0F12818BF1A286A
:1006C00001D10020607000F00DF8DFF8480801212A
:1006D00000910022818C6378408B00F0CFFCBDE854
:1006E000134004E0DFF8AC0A0068FFF7CCBBDFF88A
:1006F000A80A007800B1704780B50022012100F0FF
:1007000043F930B1016800291CBFBDE80240FFF782
:100710000FBB01BD80B5042000F027F9DFF87C1A7B
:100720000978814207D3FF2000F01FF9DFF8701A23
:100730000978814201D2012002BD002002BD0000E3
:10074000181300502DE9F04107468846387B0024F5
:1007500000F02AF90546012625BB7A89397B3868DD
:1007600000F0BAF8050061D02C81387C2874788AB2
:10077000688207F1100000F01FFF68614FF67F41AB
:10078000388B28830124B87EA87668890840688160
:1007900041074FBF40F08000DFF8D01A097840EAE7
:1007A000C11068816889C109B8F1000F01F0070123
:1007B00012D002226A732A68927B520703D5DFF8AF
:1007C0005427128A2A8119B34FF67F421040491EDE
:1007D00040EAC11068811BE009B9002618E08106D3
:1007E00005D502F0C6FF00F07F005F3008E0C006CC
:1007F00005D502F0BEFF00F00F000A3000E0012036
:10080000288120210420687300F014F803F004F913
:100810006CB12A89697B284600F071F838B16869A3
:1008200008B102F018FF284602F015FF00263046F6
:10083000BDE8F081DFF8B003007A70473EB50024D0
:1008400000F0B2F898B3417B062930D101684489A1
:10085000097A8DF8081001680988ADF8001000F0D9
:10086000DAF8200522D5BDF80010002000F021F8AC
:10087000E0B9DFF8A046A18C00A805F03EFB0021FE
:1008800000200CE0286801884FF6FF7291420DD0DD
:10089000A18C05F030FB1A2808D00021284600F072
:1008A00008F80500EED1002005F029FB01242046C0
:1008B0003EBD18B9DFF85C06C06F00E0406840B18B
:1008C00042891205FAD500291EBF026812888A42A1
:1008D000F4D17047FDFC000070B504460D46164685
:1008E0001C2002F0ABFE48B1002141730573468124
:1008F00001818173C17304604161416070BD70B555
:1009000004000D4616462ED0012D284607D100F0D2
:100910002CF8DFF8E019097881420DD208E0042DA7
:1009200008D100F022F8DFF874180978814203D268
:10093000112070BD022D16D16573268100206060E4
:10094000DFF8D005C16F31B100E0014648680028EA
:10095000FBD14C6000E0C467FFF76CFF202103F07F
:100960005BF8002070BDC12070BDDFF8A825D26FF4
:10097000002105E0537B5268834214BFFF28491CC5
:10098000002AF7D1C8B2704718B9DFF88805C06FE0
:1009900000E0406838B1437B8B42FAD11AB103685A
:1009A0009B7B5B07F5D47047DFF86815C96F00E0E3
:1009B000496821B10A7B8242FAD10846704700207B
:1009C0007047F8B50446002620000D460BD0DFF82E
:1009D0004405C76F00E07F682FB129463846A0471D
:1009E0000128F8D13E463046F2BD0000AA42002060
:1009F00010B5DFF82015CA6F1346002401E01C462D
:100A00005B683BB18342FAD15868934201D1C86711
:100A100010BD606010BD10B5040011D0FFF7E8FFF5
:100A20002068006A02F017FE206802F014FE606978
:100A300008B102F010FE2046BDE8104002F00BBEE7
:100A400010BD10B550B150F80C1C002902BFA0F128
:100A50000C018A7AFF2A03D002F0AEFE052010BDF9
:100A6000614C227A8A72DFF8001B0A78014604F191
:100A7000540002F0B2FF012806D1207A4FF4005151
:100A800002F0CAFF002010BD042010BD70B5DFF8D1
:100A9000BC0A00688047544D6E6D04468EB156F80E
:100AA0000C1C287A00294FF4005102D002F0B4FF48
:100AB00001E003F001F80022314605F1540002F094
:100AC00072FFDFF8E81A096820468847304670BD93
:100AD000E94900202DE9F0414FF6FE7888B0044640
:100AE0004546FFF717FE08B1112076E0207FA8B138
:100AF000DFF8BC0A0078410141EA80002077FF203E
:100B00006188FDF75FFB48B1E08A40F00400E082B5
:100B10004FF6FF75207F40F001002077608800F0DD
:100B200025FD08B100206076A07E18B9DFF8840AA0
:100B30000078A0762078DFF8DC63010603D500F0AA
:100B40000300207006E0E07E20B93078E07630784F
:100B5000401C3070207E01280BD1DFF8D80A0078C5
:100B600028B1F07A002804BF2078002801D10020A5
:100B700020762078012802BF20690078022803D15E
:100B8000E08A40F04000E08204A9204600F0A0F88E
:100B90004545074608BF6588EFB120789DF81030BD
:100BA000F28A8DF8140006942946608DADF816007F
:100BB00005A8039094F82C000290E08A0190607DD3
:100BC0000090384600F044F80446102C04D1384612
:100BD00002F041FD00E010242046FEF71FBC00009B
:100BE000ED49002054420020E040002010B58EB0B6
:100BF000044601A8342105F035FAA088ADF81000AC
:100C000000226088ADF80E0000A9207D8DF820003C
:100C100020690B90207F8DF80900208DADF814001D
:100C2000207E8DF80A00607E8DF8080000F00AF83A
:100C30004FF0FF308DF8020001A8FEF7C5FD00203F
:100C40000EB010BDFF208DF800008DF80100704738
:100C50002DE9F041054688B00E4690461F46102407
:100C6000242002F0EBFC009068B3242200F02DFE5B
:100C7000A8480099808C4881ADF81880022000991E
:100C8000087300990872009806800098C77700984A
:100C90000E994173009805628DF80C1000210F9891
:100CA000ADF80A001198D0E9002310988DF81A00C9
:100CB000CDE9042300A8FFF745FD01280EBF00245D
:100CC000009802F0C8FC2046FEF7A8BBBF420020F7
:100CD000F8B504460E46617F082001B11020A17FBF
:100CE00001B10830217F01B1401CA17919B1217AED
:100CF0004900891C08186070207E0028DFF8BC09B4
:100D0000007814BF0E250025012808D1207801287D
:100D100005D0DFF8800A007810B1012000E0002043
:100D200084F834006178207D7A4F081828183070D4
:100D3000207E28B1387B04F0DDFF31784018307018
:100D400030787528A8BF002662DA02F077FC06002A
:100D50005ED02078B97C40EA8100617E01F0030119
:100D600040EA8110217F09B14FF480710843217E50
:100D700040EA4120617F40EAC120A17F40EA013082
:100D8000A17940EA812094F8341040EA413080B2E1
:100D900030700827000A70706088B0706088000AA0
:100DA000F070A0883071A088000A7071A07EB071C8
:100DB000E07EF071607F28B1216A06F10800FCF73F
:100DC00037F91027A07F28B1616AB819FCF730F90C
:100DD0000837FFB2A07980B1207AB855781CC0B22C
:100DE000617A8155471C207AE168FFB24200B81948
:100DF00002F07FFC207A07EB4007207F08B1FFB2AA
:100E0000B8556078227D21698019281802F071FC9C
:100E10003046F2BD2DE9F04104460F461546012645
:100E200034220021284602F07CFC082F5DDB2F7065
:100E30002078627800EB0220294680B200F06CF83E
:100E400000B10026A078E17800EB0120688161798B
:100E5000207900EB0120A881A079A874E079E874DA
:100E600008206870E87918B104F1080000F0D7F89C
:100E7000287A20B168780019A86100F0D1F8002024
:100E800085F820006862687920B16878015D697131
:100E9000401C6870687F20B36878411C69704B1CE7
:100EA000005D85F82000C9B26B70095D85F82110DE
:100EB000814214D2DFF8E818DFF8E8880978814227
:100EC00038BF0C204700DBB23A461919404602F001
:100ED00010FCC5F8248068783818687001E000209C
:100EE000687768782978814201D200200FE00219E2
:100EF000AA62081A2877A97941B10E38287702F139
:100F00000E0000F091F8297F081A28773046BDE8D6
:100F1000F0810000B045002000F003028A70C0F3A9
:100F200083038A1C537003069B0F9370430A03F0DC
:100F300001031371030A03F00103D370830A03F062
:100F40000103D376C30A03F001035371030B03F0CB
:100F500001039371420B02F0010281F83120800BF2
:100F6000704710B5DFF87C288479D37A00212CB142
:100F7000002B04BF8078002807D105E0002B1EBF9E
:100F80004089D28A904200D00121084610BD00005D
:100F9000F8B506461546307872780C4600EB02200C
:100FA000294680B2FFF7B8FFB078F17800EB012056
:100FB00068817179307900EB0120A881B079A8743B
:100FC000F079E87408206870E87918B106F1080033
:100FD00000F025F8287A20B168788019A86100F01F
:100FE0001FF8687920B16878815D6971401C68706C
:100FF0002846FFF7B6FF07000FD16878AA79811954
:1010000012B9A962201A07E001F10E0000F00CF8F5
:101010006978611A0E39081A28773846F2BD686176
:101020006878083068707047A862DFF8B807007BFE
:1010300004F060BE10B5DFF82C482146E22004F031
:10104000D5FE204610BDDFF89C07C08A7047DFF848
:101050009407408B704701464A2004F0C7BE38B55C
:10106000DFF804482578681C20702846FFF79CFCB0
:101070000028F7D1002DF5D0284632BDF8B504463A
:101080000E4617461D4600F0B9FC069938B9A9B9B5
:101090003A4631462046BDE8F84000F05FBD19B140
:1010A00065B90022027009E045B98278BA181204C5
:1010B000520C827082780AB9012282700129DFF80D
:1010C000E467F07A01D115B90020F072F1BDDFF8C4
:1010D000D8170978401CC0B28842F6D30020F072BD
:1010E000DFF8C807408B844209D121460120FEF772
:1010F0006FFC307ABDE8F440012103F093BDF1BDEF
:10110000DFF8A0170B7A012803D10121184602F05D
:1011100083BC2049086020B102460121184603F033
:1011200056BD0121184603F07DBDDFF88417088005
:101130007047DFF880170880704710B5DFF8A426E5
:101140007421212002F09FFE0446FCF787F9044336
:10115000DFF864070068010001D080470443FDF711
:10116000C2F8044304F098F8204310BD80B504F0A1
:10117000E8FE00F09AF8FCF786F9DFF8400700680F
:10118000010018BF8047FDF7C0F8BDE8014004F03A
:1011900026B9000074420020F549002051CC01001E
:1011A00052CC010038B5DFF83C5600242A467421A1
:1011B000212002F068FE00284BD12B46742200212A
:1011C000212002F0F3FE002843D105F10E004FF676
:1011D000FE72018991423CD0007E0124082818BF8C
:1011E000042833D18DF8004000A9422004F00DFE00
:1011F00005F12F01432004F008FE05F12C014720E2
:1012000004F003FE05F11C014A2004F0FEFD05F187
:101210001A014B2004F0F9FD05F12401502004F0DF
:10122000F4FD05F11601532004F0EFFD05F12D0149
:10123000542004F0EAFD05F11801E12004F0E5FD79
:10124000A87B00F015F804F0E0FD02E004F079FE60
:101250000024FCF7C7F8DFF868060068010018BF33
:101260008047FDF787F8204632BD0000C0420020CD
:10127000C00800F001008DF8000000A9522070475E
:1012800010B50446E00701D500F00FF8200748BF6D
:10129000FCF7C0F8600707D5DFF8280600680100F2
:1012A0001CBFBDE81040004710BDDFF800367422B7
:1012B0000021212002F02DBE30B5FEF79EFBDFF8A5
:1012C000E45580F8724085B0697A00AA05F17C0087
:1012D000FFF7B7F96A7A8DF8124005F17C0100A892
:1012E000FFF782F905F17C01452004F08EFD05B081
:1012F00030BD000050CC010070B5DFF8A8550446A1
:10130000287A4FF4806103F08DFC00F026F8092064
:10131000DFF8981581F82600FFF78CFE014660691A
:10132000FBF78AFEC0B1102002F034FA060013D099
:1013300002203070A06A4178827801EB022171802E
:10134000C07870704A20A16904F05FFD287A3146A8
:10135000BDE8704002F03FBA70BDE889DFF854156F
:101360000880DFF84C15288A0880704738B5044695
:1013700002208DF8010000A800F0D7F805003AD04F
:1013800028690421017000214170217A012904BFDC
:1013900020214170617A012903D1417841F0400157
:1013A0004170A17A012904D1417841F08001417056
:1013B00001E00120A876607A012805D1606808B1B3
:1013C0000120687760682862E07A012808BFE88217
:1013D000208800F0CBF818B1E88A40F00400E882D9
:1013E0000120A877FFF726FE6862208868802846DB
:1013F000FDF760FF32BD102032BD7FB504460D46BB
:10140000002600F084F8A86A407810F01F0103D08D
:1014100000F0C2F900203FE0810644BF01218DF8B1
:101420000C10010644BF01218DF80B10400603D5B6
:1014300001208DF80A0003E09DF80A00012803D17D
:10144000E87950B16E6902E0287A30B1AE6926B110
:1014500031460DF10200FBF7EBFDA889ADF8000065
:101460009DF80A00012813D1688900F07FF8002850
:1014700001BFA889DFF83414498B88420BD13EB1F3
:10148000FFF7D8FD01460DF10200FBF7D5FD10B1C5
:1014900000A801F0D1FE204604B070BD10B504468E
:1014A00092B020684189CA072FD54FF6FE721140CD
:1014B000418104AA0068C17F006AFFF769FD002826
:1014C00002BF0E98007804281FD100F020F8BDF864
:1014D0001A00ADF800000E984078810644BF012143
:1014E0008DF80B10010644BF01218DF80A1040064B
:1014F0004CBF09990A990DF10200FBF799FD20797B
:101500008DF80C0000A801F07DFE12B010BD0E2277
:10151000002100A802F005B9002104281CBF0A28F8
:10152000032800D101210846704710B53821017009
:1015300001218170FDF7EBFE040005D00120207031
:10154000A077FFF777FD6062204610BD08490020B4
:101550000121020748BF03218007DFF82C0448BFA0
:1015600041F004010170704758CC01004FF6F87348
:1015700000210022C01A03280BD9001F05D0401EED
:1015800005D0801E06D1012204E0042202E00222DE
:1015900000E00822DFF8F0030078104218BF0221B3
:1015A00001D102B101210846704700000C4900201A
:1015B000D542002060CC0100017821B940680028A4
:1015C00018BFFDF797B90020704710B50021DFF86C
:1015D000282402EB81035B88834203D100F023F8C7
:1015E000C52010BD491CC9B20329F2DB00214FF60A
:1015F000FE7402EB81035B88A34207D0491CC9B289
:101600000329F6DB002112F8213033B902EB810304
:10161000588000F008F8002010BD491CC9B2032909
:10162000F1DBC72010BDDFF83804007802F8210094
:1016300070470000C54200207FB504460D461226C3
:10164000A4B300F035F8844209D1FFF7F3FC01465A
:101650002846FBF7F1FC00F0010080F001060020B5
:101660008DF80000ADF8024000A8FBF7D8FD58B196
:1016700001A8FBF75CFD012806D1012601A9284637
:10168000FBF7DAFC00B100262946204600F0BCF941
:101690000A2808BF012608D0A02806D129462046DE
:1016A00000F02CFA204600F075FA304604B070BD08
:1016B000DFF8F801C08A704700000000EF49002001
:1016C00010B50446207A38B1A169A089FFF7B4FFAC
:1016D000012808BFA08908D0E07950B1616960890C
:1016E000FFF7AAFF012804D16089FFF76EFF0120F0
:1016F00010BD002010BD2DE9F04182B00446042049
:101700008DF801000D4616461F464FF0010800F007
:101710006CF8A0B147B1002181778580017841F054
:10172000800101700021C176032201690A704E70A8
:101730008D702A0ACA704480FDF7BCFD8046404681
:10174000BDE8F68138B504460D46A06A227F41788F
:10175000042A02D000F020F819E08278C07802EB69
:1017600000220E29608988BF002592B2FEF75CF93D
:101770006089FFF7FBFE50B1A07C022807DBDFF891
:101780002C11A089C98A884201D0284632BD002088
:1017900032BD0000ED490020D32004F0C1BA0000A2
:1017A00057CC0100A84800202DE9F84300F01FF8AD
:1017B000994600F019F8060012D030690B2101702B
:1017C00000F8018F00F8019FB777FFF733FC7062D4
:1017D000777735627480B7763046FDF76BFD074644
:1017E00000F097BBB0450020012700A89DE6044605
:1017F00003208DF801000D469046704710B5806AB1
:1018000010F8011F10F8014F51BB012C18BF022C1A
:1018100026D1DFF8003401221C70512002F079FB40
:10182000022C1DD1DFF8F003DFF8E4230078002854
:101830000FBF106852F820003C22504303224FF49F
:101840007A71B0FBF2F04843DFF8D013086002462B
:10185000FEF7F0FFBDE810404FF4804103F0C6B939
:1018600010BD00009C490020F749002070B500F031
:101870009AF800E0521CDFF8A8432478A2420FDA5D
:101880001C245443E55AB5421EBFE5182C8B002C8E
:10189000F0D0002819BF00242C83611889B2E9E731
:1018A000084670BDE0400020C1420020B045002045
:1018B000AA420020AC4200203048002034480020DA
:1018C000384800203C4800201C22002101F029BF9C
:1018D00038B50024DFF8B45305E01C2000FB0450A9
:1018E00000F068F8641C00F024F98442F5DB002065
:1018F000414901EB80034FF6FE725A80002201F845
:101900002020401C0328F4DB31BD30B50023DFF874
:101910007C4301E05B1CDBB2DFF83C23127893428E
:101920000EDA1C225A43155B8542F3D112195589F0
:101930008D421CBF4FF6FF75A942EBD1104630BD5A
:10194000002030BD70B54FF6FF714FF6FE70FFF707
:10195000DCFFB0B90025DFF834430DE01C216943FA
:101960000E19B27C002A1CBF727C002A03D1085BCE
:1019700000F072FD30466D1CDFF8DC1209788D42F4
:10198000ECDB70BD00000000F649002038B50446CD
:101990000D4603E000F00EF829462046FFF7B5FF9C
:1019A0000028F7D131BD00210022DFF8E0324FF6E8
:1019B000FE76704710B5040007D0FFF785FF4FF69D
:1019C000FE7020804FF6FF70608110BD38B5044670
:1019D00000250AE0DFF8B4021C2101FB0500418963
:1019E000A14218BFFFF7E6FF6D1CDFF86C0200781C
:1019F0008542EFDB31BD00002849002080B5FFF7AC
:101A000084FF00B1103002BD2DE9F04704468A463C
:101A100000260027DFF8748217E01C2000FB07F97E
:101A200009EB0805A81CFBF782FB60B139F8080038
:101A3000A04208BF46F00A065146A81CFBF7FCFA74
:101A400008B146F0A0067F1CFFB200F072F8874292
:101A500002DAF0B20028E0D0F0B2BDE8F087000072
:101A60005BCC0100DFF8F0010078854270472DE97A
:101A7000F84305460E4691460024002001214FF60A
:101A8000FE78DFF8087209E001F073FEC0B290FB47
:101A9000F4F104FB1100C0B200240021002201E097
:101AA000521CD2B2DFF8B0311B789A421CDA1C23E8
:101AB000534333F807C0C44518BFAC45F0D0B44514
:101AC0001FBFCC4503EB070C9CF811C0BCF1000F05
:101AD000E6D0BCF1070FE3DA641C0029E0D1E4B2E0
:101AE0008442DDDBD85B07E0E4B224B118B9012CF5
:101AF000CAD10120D0E74046BDE8F2832DE9F0418C
:101B0000044688460027DFF8846100E07F1C00F06F
:101B100010F8FFB287420AD21C2000FB07F5A81973
:101B20004146801CFBF788FA0028EFD0AC53BDE893
:101B3000F081DFF824010078704707210D28A8BF45
:101B4000012109DA0728A8BF032105DA0328A8BF65
:101B5000052101DA00B9002108467047F8B50546AD
:101B60000E461746FFF7EEFE040012D0FFF7ACFE5C
:101B70002580668107B90127DFF8D800A77490F89F
:101B80006C0001280CBF002007206074FDF781FB6A
:101B90002074F1BDF8B504460025DFF8F06015E0CB
:101BA0001C206843815BA14207D04FF6FF7294422C
:101BB0000BD14FF6FE72914207D08719B81CFBF784
:101BC000B6FA10B93846FFF7F5FE6D1CFFF74AFF6D
:101BD000E6DBF1BD00B583B000A9002200230CC1F3
:101BE00000A9FBF729FA08B100200EBD01200EBDA7
:101BF00010B53A2B18BF3B2B1C4607D113460A469B
:101C000001462046BDE8104002F0D0B90A2010BDC0
:101C100064CC0100ED490020D1420020CC490020D5
:101C200056CC0100DFF858130978002208E000EBD9
:101C3000C2031B7E03F00D03012B08BF491E521C7B
:101C4000037CD2B29A4202D2C9B20029EFD1C8B203
:101C500070470000B045002056CC0100DFF820138B
:101C60004978002208E000EBC2031B7E03F08D03DD
:101C7000812B08BF491E521C037CD2B29A4202D269
:101C8000C9B20029EFD1C8B2704700003046002029
:101C900070B50446E00000F11405ADB2481980B2F9
:101CA00001F0CCFC060006D02A46002101F039FDE7
:101CB0003474A819F060304670BD38B5044600F0A1
:101CC00011F8DFF8B8522978884224BF686800F01C
:101CD00015F868782071401C6870204600F02EF8D6
:101CE000207932BDDFF894124968002001E00968CC
:101CF000401C0029FBD1C0B27047000010B50400A1
:101D00001EBFDFF878024168002915D00A4600237B
:101D1000A24204D013461268002AF9D110BD2268ED
:101D20008C420CBF42601A602046FBF775FE2046CD
:101D3000BDE8104001F08FBC10BD0000DFF83C1280
:101D40004A6822B100E01A461368002BFBD1002339
:101D500003600AB11060704748607047DFF81C12DA
:101D6000496800E0096869B1002200E0521C0B7C60
:101D7000D2B29A42F6D201EBC203DB7D8342F5D1A7
:101D8000084670470020704730B5002301E05B1C17
:101D9000DBB2047CA3420ADA00EBC304E57D8D428A
:101DA000F5D1207E1043207604F1120030BD0020D2
:101DB00030BD2DE9F04380460E46F00785B09146D0
:101DC000DFF8F84308D5B0074FF6FC7854BF46F06B
:101DD000080646F0100630E0404600F002FBE18ABB
:101DE000884205D032460221404600F0CCFA08B9BC
:101DF000002068E0334602224FF6FE71404600F0B4
:101E0000C1F800285ED106F0DF06700615D446F052
:101E1000200702A94046FBF7A3F968B9A18C404608
:101E2000FFF773FD050008D0A81CFBF780F920B16F
:101E3000A91C02A8FBF7FCF83E46DFF88853E38AAA
:101E40002F780120009000223946184600F0F8F95A
:101E5000791C2970B0BBB0064CBF0E2006208DF84F
:101E6000050001A8FFF761FB040029D00120A0773D
:101E7000FFF7E0F8606201212069017006F0780147
:101E80004170877080F803804FEA182101710021AA
:101E90004171B10603D502A9801DFBF7C9F84FF6C1
:101EA000FD70B9F1000F608006D0DFF81C030078E8
:101EB000814538BF84F81A902046FDF7FBF902E00F
:101EC000102000E0C72005B0BDE8F08310B5DFF8B2
:101ED000F042207A4FF4805102F0BAFE10B1012096
:101EE000A07210BDDFF818030278DFF8180300783D
:101EF00001280CBF012103210020FFF75AFFDFF862
:101F000008030288207ABDE810404FF4805102F0A7
:101F10005EBE3846BDE8F28309B0BDE8F08F07B079
:101F2000BDE8F08FF8B5DFF894520746E88A01263D
:101F300087420C4604D000233846FFF7DCFB0646F8
:101F40000021384600F04DFAE98A884214D1002178
:101F5000204600F0DEF900281EBF817918221142C8
:101F600006D000F04FFAE98A008800F051FA03E049
:101F700001212046FDF744FD3046F2BD9442002089
:101F8000BC4200202DE9F04707464FF6FC7087421F
:101F9000884615461E4657D00021384600F021FAE3
:101FA000864C0746E08A874201D170067CD53146CF
:101FB000384600F0AEF901004FF6FE79DFF81CA3B9
:101FC0001AD10021484600F0A4F9010014D11821CB
:101FD0000E4233D0DFF80803027800238C4601E07C
:101FE0005B1CDBB293420AEBC30103DA887910EA87
:101FF0000C0FF5D1934221DA0F80C84518BFA1F824
:102000000280F00748BF46F00406DFF800028E7138
:10201000012D007816D101224A7118238A791A42BB
:102020000ED008714046A18CFFF7E8FC00283BD198
:10203000DFF8AC12DFF8C8530A7810E0022034E071
:10204000207DEEE74A79012A2ED08A7918231A4298
:1020500008BFE07C08714D7126E0401CC0B2DFF87B
:102060002C14097888421FDA1C23002103FB00F698
:1020700006E00AEBC103775B5B88BB42EDD0491CED
:10208000C9B29142F5D3E8D177191C220021384614
:1020900001F047FB26F80580A08C7881AA20B8744F
:1020A0000120787400F003F80020BDE8F087DFF825
:1020B00004020078401C00EBD07040103874704768
:1020C0002DE9F0470446DFF8C80300780D46854245
:1020D000904628BF05203CD2204600F03EF8064638
:1020E0003548DFF8D0A00778BE424FF6FE7914D10C
:1020F000484600F032F80646BE420ED19AF800007B
:102100000026012106E01AF8312082423CBF104629
:102110000E46491CB942F6DBF6B20AEBC607A7F831
:102120000290786818B101F096FA0020786045B105
:10213000680001F083FA786068B16A00414601F0F6
:10214000D8FA7C807D70DFF84C0300780AF83600FE
:102150000020BDE8F0870120FBE738B51649154A95
:102160000978002401E0641CE4B28C4204DA02EB3A
:10217000C4035B888342F6D18C4204BF4FF6FE73E2
:10218000984214D1002401E0641CE4B28C4203DACA
:1021900012F834000028F7D18C4208DA02EBC405AB
:1021A0006B80686818B101F056FA0020686020461C
:1021B00032BD0000A046002054CC0100B0450020F4
:1021C000E0400020F849002060CC010070B5DFF845
:1021D000C0321B78984210D2DFF8F442E68A00231E
:1021E00000E05B1CDBB2834203D232F81350B542ED
:1021F000F7D18B4201D1012070BD002070BD0000DD
:10220000CD420020EB4900205CCC01005ECC0100F7
:1022100000212046E5E010B50C46002100F0E1F871
:10222000214600F076F848B14FF6FE7101804180FA
:102230000021017141718171002010BD042010BD89
:102240002DE9F84F8346884615461E4600F04AF8A9
:10225000DFF88012DFF8809291F800A00A9C0A272C
:1022600050450ADA07FB0090C1798D4203D2ECB1E8
:10227000C57186801AE0032019E000214FF6FE7038
:1022800000F030F8504508BF022010D074B17843F8
:1022900000EB0901FF22A1F802B08E80CD718A7196
:1022A00000F80980DFF82802C07C08720020BDE831
:1022B000F28F000059CC01000021DFF8242200E059
:1022C000491CDFF818321B78C9B2994204D28B5CE2
:1022D0008342F5D10020885470470000E04200207E
:1022E00053CC010030B50022DFF8EC3101E0521C84
:1022F000D2B2DFF8E0412478A24208DA0A2454433B
:10230000E5186D88854204BFE45C8C42EFD110462D
:1023100030BDF8B5DFF8CC21DFF8CC61157801F0DD
:10232000400100244FF6FE7308E006EBC407BF79B6
:1023300007F040078F421ED0641CE4B2AC4205DABD
:1023400036F834708742F7D19842EED1AC4208BFDC
:10235000984210D1002401E0641CE4B2AC4204DADB
:1023600006EBC40000790028F6D1AC42BCBF36F8B9
:102370003400FFF750FFAC4202DA06EBC400F2BDB6
:102380000020F2BD000070B50D46012D0446164632
:1023900003D1072100F080F8E8B9FFF739FF314693
:1023A000FFF7B7FF012D04D0C8B14079A84216D17C
:1023B00011E020B14179A94208BF458802D07006DA
:1023C0000DD425464FF6FE70854208D007212846D9
:1023D00000F062F808B1002070BDA542F1D10120E3
:1023E00070BD490600D4704780B50146FF20FBF759
:1023F000E9FE10B1FFF75CF902BD4FF6FE7002BDB9
:10240000304600204FF6FE7100910022438870474D
:10241000F8B504460D461E4612B100230B2215E006
:1024200000212846FFF775FF070014D0B879C007D0
:1024300011D5069822463146FFF719FBFDF7FDFC42
:1024400009D0788000230C222146284601B0BDE83F
:10245000F040FFF750B9F1BD234900220FE08B791E
:10246000DB070AD44B88834204BF4B79012B04D18C
:1024700003234B714FF6FE734B80521C0831194BEE
:102480001B78D2B29A42EAD37047000056CC0100C2
:1024900057CC0100CE42002070B50D4D0C46A98CE2
:1024A000FFF7ACFA060011D0B078FFF746FB717861
:1024B000002918BF002809D06A7B012A02D1814275
:1024C00038BF01468C4201D3012070BD002070BD91
:1024D000B045002055CC0100004700205ACC010037
:1024E0001049002053CC0100E042002010B5DFF875
:1024F000544BE073022020724FF6FE702080FEF7EE
:1025000099FD03F0B3FD04F1540002F081F8607C02
:1025100018B1002000F0E7F80AE04FF6FF7000F075
:10252000E2F84FF4FA7332220021082004F041F956
:1025300000F072FF00F0C0FABDE8104000F094BF58
:1025400030B585B0044602F068FD04B3DFF8141A14
:1025500000200860DFF8E00A90F84100002802BF80
:10256000DFF8D80A0078012811D1DFF8D40A007802
:1025700068B100A9622003F060F8002100A803F010
:1025800008FA002003F01CFA102200F0A7FBDFF885
:10259000B44AA06C30B1A06C056801F05CF8A56489
:1025A000002DF8D105B030BD70B506460C462004AC
:1025B000DFF8A85B16D4E0071CD5012001F003F872
:1025C000DFF8900BE97C00780F230F2200F0070062
:1025D00003F05DFD84F0010070BD00F058F9304655
:1025E00001F0EAF8E87B01F055F90600F5D184F432
:1025F000004070BD687CA10419D50C2807D10220C9
:1026000000F0E1FF00F0BDFEDFF83C0A06E00C2020
:1026100000F0D9FF00F0C5FEDFF8300A0268E87B61
:102620004FF4005102F0D3FA84F4005070BDE1067B
:1026300011D503F09CFDDFF8180A0078012807D1B6
:10264000DFF8100A007864224FF4006102F0BFFA4C
:1026500084F0100070BD200702D584F0080070BD22
:10266000E0050BD5DFF8D00990F82600082814BF44
:10267000042800F0DBF884F4807070BD600707D593
:102680000221FF2004F02FF9DFF8CC1A01200860A6
:10269000E00404D500F03EFF84F4805070BD214674
:1026A0003046BDE8704010B50C46200604D500F059
:1026B00096F884F0800010BDA00504D500F0FEFA65
:1026C00084F4007010BD200504D502F0F7FF84F4F7
:1026D000006010BD600504D503F023F884F4806029
:1026E00010BD002010BD2DE9F843DFF85879804671
:1026F000787C0125002608B904F0B5F804F0F0F95B
:10270000DFF8504ADFF83099A07889F80E00787D1C
:10271000022829D17E75FEF710FDFEF727FD03F094
:1027200051F8012D0CD100F035F801F022F800F03D
:102730007F00404400F16406DFF8C40A0068386492
:102740002846FFF7FDFE4FF6FF70804506D00120BA
:10275000787400F03FFBB0B200F0E1FDA078FEF726
:10276000F7FE2846BDE8F28300F00BF80500D2D151
:1027700000F066F8054699F9181001208840386481
:10278000CFE710B5002404F09FF8800748BF01246C
:10279000204610BD10B5DFF8BC09DFF8602A0178CB
:1027A0001278DFF8A04801F0F80112B90222017096
:1027B00013E0012A08BF41F0010103D0022A02D12F
:1027C00041F002010170DFF8680AFFF703FA002800
:1027D0000FBF002203220420A074E27410BD10B5C4
:1027E000DFF87849607C052816D100F0E6FA00F0A1
:1027F00062FA00F005FE00F061FA00F0DFFDDFF89C
:1028000054098078000702D500F00BF808D1606CFD
:10281000BDE81040FEF774BCBDE8104000F0F0BD0C
:1028200010BDDFF8B00A00780128704780B50F208E
:10283000FEF726FDBDE804400221002004F053B855
:1028400038B5FEF77AFC05460A2D1AD0DFF8E449C0
:10285000FEF7A8FCC0B1FEF7F6FBDFF8E827108012
:1028600028B9DFF8F008017801F0F80101700120C3
:10287000D07402F14C00DFF8E01AFAF7D9FB00201F
:10288000208015B9002032BD2080012032BD2DE905
:10289000FE43DFF8684902782178DFF89C77DFF89B
:1028A000BC58012A12D0022A00F0B880032A00F096
:1028B000BC801A2A04D0D32A05D0FD2A02D0CBE04E
:1028C00004F0C4FCCAE000F0CBF8C7E0687C022842
:1028D000FBD1012918BF0229F7D100F045FB060002
:1028E000287B00F091800328C0F28E80E87CDFF81E
:1028F000648890B9032000F066FEB07900F02EFDE8
:10290000F07A98F80230019030890090B2783188DE
:1029100006F10C00FCF75EFE4FE0032852D10020C8
:1029200000F011FA0128A87C04D1042814BF042067
:102930000D2003E00D280CBF0E200F2000F043FEF9
:10294000F88A4FF6FE79484517D100AB02220021E4
:10295000492001F02BFB40B9BDF80000484504D0E8
:10296000B97B01F07F01B97301E000F002FFF8824A
:1029700007F11601532003F048FAB88C4FF6FF71A7
:10298000884206D13088B88407F12401502003F032
:102990003CFA01208DF8080002A9522003F035FA14
:1029A000002000F0D0F90128B17805F14C0002D1E7
:1029B000FCF77EFD01E0FCF77DFD18B100F0D9FECB
:1029C00000F073F998F80200000711D5207800286C
:1029D0001FBF0128DFF8FC08007800283ED1002046
:1029E000FEF78EFB00F065FA0020FEF7A2FB35E053
:1029F000E87C98BBDFF8180A00686864DFF8140AFE
:102A00000088FEF77DFB29E0697B39B3401C287301
:102A100000F0AFFEC0B2643080B21AE0012918BFE6
:102A200002291BD100F074F818E0012918BF02290F
:102A300014D10020287507F139010120E874A8732A
:102A400005F14C00FAF7F4FADFF8681A0220087072
:102A5000002000F064FC01E000F045F8BDE8F783D9
:102A600030B5044687B0E089213801281AD947F6E5
:102A7000DF71401A01281DD8204603F02BFE050007
:102A800018D0287818B96888291D03F0CEFDE08990
:102A9000B0F5004F04BF281D00F00EFD284600F0E1
:102AA000DAFD07E000A9204603F0F2FD00A9204668
:102AB00003F035FD07B030BD10B5DFF88845E07B89
:102AC00048F2010104F062FBE07B4FF4004104F0A6
:102AD0005DFBE07B212104F059FBE07BBDE8104069
